:020000040800F2
:1000000000080020C11100080108000803080008CA
:1000100000000000000000000000000000000000E0
:1000200000000000000000000000000005080008BB
:100030000000000000000000070800080908000890
:100040004112000841120008411200084112000844
:100050004112000841120008411200084112000834
:1000600000000000411200080B08000841120008BF
:10007000411200084112000800000000411200086F
:100080000000000000000000000000000000000070
:1000900041120008000000000000000041120008AA
:1000A00000000000411200080000000000000000F5
:1000B000411200084112000800000000000000008A
:1000C00010B5064C2378002B07D1054B002B02D02E
:1000D000044800E000BF0123237010BD040000208D
:1000E000000000008C120008084B10B5002B03D054
:1000F0000749084800E000BF07480368002B00D10B
:1001000010BD064B002BFBD09847F9E7000000001C
:10011000080000208C1200080400002000000000ED
:10012000002243088B4274D303098B425FD3030A36
:100130008B4244D3030B8B4228D3030C8B420DD349
:10014000FF22090212BA030C8B4202D312120902D7
:1001500065D0030B8B4219D300E0090AC30B8B4215
:1001600001D3CB03C01A5241830B8B4201D38B03C3
:10017000C01A5241430B8B4201D34B03C01A524168
:10018000030B8B4201D30B03C01A5241C30A8B42AB
:1001900001D3CB02C01A5241830A8B4201D38B0296
:1001A000C01A5241430A8B4201D34B02C01A52413A
:1001B000030A8B4201D30B02C01A5241CDD2C309AC
:1001C0008B4201D3CB01C01A524183098B4201D328
:1001D0008B01C01A524143098B4201D34B01C01A13
:1001E000524103098B4201D30B01C01A5241C3088B
:1001F0008B4201D3CB00C01A524183088B4201D3FA
:100200008B00C01A524143088B4201D34B00C01AE5
:100210005241411A00D20146524110467047FFE751
:1002200001B5002000F006F802BDC0460029F7D055
:1002300076E770477047C046002B11D1002A0FD1D6
:10024000002900D1002802D00021C943081C07B4AE
:10025000024802A14018029003BDC046D9FFFFFF2B
:1002600003B4684601B5029800F030F8019B9E4641
:1002700002B00CBC7047C046F0B5CE4647461504E8
:100280002D0C2E0080B50704140C3F0C9946030C6E
:100290007E435D43674363437F19340CE4199C46F6
:1002A000A54203D980235B029846C4444B46514380
:1002B00043433604360C250C24046544A41959180C
:1002C000491920000CBC90469946F0BDF0B5574640
:1002D0004E464546DE46E0B5040083B00D0092462A
:1002E00099468B422FD82CD04946504600F0AEF8A4
:1002F00029000600200000F0A9F8331A9846203B98
:100300009B4600D574E053465A4693401F0053461F
:10031000424693401E00AF4229D826D05B46A41B1C
:10032000BD41002B00DA79E0002200230092019306
:1003300001235A4693400193012342469340009380
:1003400019E08242D0D900220023009201930C9B35
:10035000002B01D01C605D600098019903B03CBC8B
:1003600090469946A246AB46F0BDA342D6D900229C
:100370000023009201934346002BE8D0FB0772084C
:100380001A4346467B080EE0AB4201D1A2420CD88C
:10039000A41A9D41012024196D410021013E241819
:1003A0004D41002E06D0AB42EED9013E24196D41DD
:1003B000002EF8D15B460098019900196941002B85
:1003C00022DB2B005A46D3402A004446E2401C0060
:1003D0005B461500002B2CDB26009E4033002600D8
:1003E0004746BE403200801A994100900191AEE725
:1003F000424620239B1A5246DA40414613004A46A1
:100400008A4017001F4382E7424620239B1A2A0096
:1004100046469A402300F3401343D5E74246202343
:1004200000219B1A0022009101920122DA400192E0
:1004300082E74246202326009B1ADE402F00B44666
:10044000974066463B003343C9E7C04610B50029D4
:1004500003D100F007F8203002E0081C00F002F899
:1004600010BDC0461C2101231B04984201D3000C7F
:1004700010391B0A984201D3000A08391B09984217
:1004800001D30009043902A2105C40187047C0462D
:10049000040302020101010100000000000000004D
:1004A00082B0104B596B012211435963596B0A40BA
:1004B0000192019A9A6B802149050A439A639B6BCA
:1004C0000B400093009B084BDA691202120ADA61B2
:1004D0001A6A06490A401A621A6A1202120A1A6253
:1004E00002B070470010024000ED00E0FFFF00FF87
:1004F00082B00A4A116B012319431163126B134036
:100500000193019B064BC22189005A5805480240BD
:100510005A508022D2001A6002B070470010024088
:1005200000E100E0FFFF00FF00B58BB0134BD96A7C
:1005300004221143D962D96A0A400392039ADA6A03
:1005400001210A43DA62DA6A0A400292029AD86A00
:1005500002221043D862DB6A1A400192019B0848CC
:10056000082383620493059100230693079308935D
:1005700004A900F04BF90BB000BDC04600100240CA
:1005800000040050F0B5D6464F464646C0B58EB082
:100590004B4A916B8020800201439163936B03402F
:1005A0000093009B042501950226029603270397DA
:1005B000002404940594069501A9A020C00500F02C
:1005C00025F980231B020193029603970494059456
:1005D000069501A9A020C00500F018F939490B685B
:1005E000394A1A408023DB0013430B60374B1A68EB
:1005F0003748804602401A601A68364884460240EE
:100600001A601A681D37BA431A601868402290436E
:1006100018601D688020854305431D601D682E4EAF
:10062000B24635401D601D68A9462C4D4E462E40F1
:100630001E600B68F026B34313430B60284B196808
:1006400046463140102631431960196866463140EC
:1006500019601968B94319601968914319601A68DB
:10066000824302431A601A68564616401E601A6892
:1006700015401D60E1235B020793089409940A94D6
:100680000C230B930C940D94164C07A9200000F03A
:100690000FF9A26880235B011343A3606368124AC9
:1006A00013406360A3682A229343A3602368293A16
:1006B000134323600EB01CBC90469946A246F0BD81
:1006C00000100240A8000240FFF0FFFF300002408F
:1006D000EFBFFFFFFFCFFFFFFFFCFFFFFFF3FFFFB9
:1006E0001C00024000440040FFB7FFFFFEE700008F
:1006F00010B52B4B1A6801218A431A601B681942F6
:1007000049D128490B68284A1A4080231B0113430A
:100710000B60264A116880235B000B431360234B58
:100720001B689B05FBD5214B5A6821491140C0220B
:1007300012020A435A605A681202120A5A60DA68B0
:10074000F0218A43DA60DA681A490A40DA60DA6826
:1007500019490A40DA60DA6803218A43DA60134BE8
:10076000DB680C221A42FAD1144C200000F0A0F9E8
:10077000134A136804210B431360200000F0A8F90A
:100780000A4AD36C0C218B43D3640E4A136A1B02B2
:100790001B0A136210BD95310B48FFF7A7FFC04637
:1007A0000020024000700040FFE7FFFF0010024001
:1007B000FF1FFFFFFFF8FFFFFFC7FFFFD0FE3F0057
:1007C00010E000E000ED00E0A412000810B5FFF713
:1007D00067FEFFF78DFFFFF7A7FEFFF789FEFFF724
:1007E000D1FE00F0E5FC044800F0B0FC6422642176
:1007F000024800F0ABFCFEE7B0120008C812000887
:100800007047FEE77047704770477047F0B50022A9
:1008100014E0866826408F686F433E43866024E07C
:10082000456A1B0A1C005C435C4363431C01E41AD9
:10083000A5434C6963432B43436201320B681C00A0
:10084000D44028D0012494402340F6D006681D00EF
:100850005D436C006419E44326404F686F433E4398
:1008600006604E68013E012ED3D9C66834400E6939
:100870006E433443C4604C68022CDED1FF2BCFD8CA
:10088000046A5D436B431D01ED1AAC434D696B4334
:1008900023430362D1E74A68013A012A01D90120C2
:1008A000F0BDC96842689A434B4313434360F6E77F
:1008B00070B504000D000068012318403FD1236883
:1008C000224A1A404B68C9680B4329690B43A9693E
:1008D0000B431343236063681D4A1340AA68134304
:1008E0006360A3681B4A13406A691343A3601A4BF1
:1008F0009C4212D0002824D02968002923D0AA695C
:1009000080231B029A420CD04B08C018FFF708FC4A
:100910000004000CE060012012E00C3000F090F8C0
:10092000E8E740004B08C018FFF7FAFB0B4B034009
:100930004008072210401843E060012000E000203A
:1009400070BD0020FCE70020FAE7C046F369FFEF26
:10095000FFCFFFFFFFFCFFFF00440040F0FF00005F
:10096000044BDA6812090F231340034AD35CD840C2
:100970007047C04600100240E0120008044BDA68DD
:10098000120A07231340034AD35CD8407047C0467D
:1009900000100240F012000810B50D4BDB688022F9
:1009A00052021340934201D00A4C00E00A4C08491D
:1009B000CA68920C0F231340084AD05C6043CB688E
:1009C0009B0D032119400131FFF7AAFB10BDC04662
:1009D000001002400024F40000127A00F81200080F
:1009E00010B5144BDA680C231340042B13D006D92E
:1009F000082B1CD00C2B10D1FFF7CEFF0CE0002BE6
:100A00000BD10C4B5A68520B072313400133802043
:100A10000002984000E0084810BD064B5A68520B8F
:100A2000072313400133802000029840F4E7034875
:100A3000F2E7C046001002400024F40000127A00E1
:100A400010B50C2801D0002010BD144BDB6C034006
:100A500000041843124B98420FD0124B984213D007
:100A6000114B984206D0FFF7BBFFFFF779FFFFF766
:100A700085FFE9E7FFF7B4FFE6E7084B1B680420B2
:100A80001840E1D00948DFE7044B186D80239B0034
:100A90001840D9D080200002D6E7C046001002409E
:100AA00008000C000C000C0004000C000024F400F2
:100AB00010B5FA218900FFF733FB0138034B58606A
:100AC00000229A6005321A6010BDC04610E000E0B6
:100AD000014B18607047C04600000020104B196899
:100AE000802252000A431A60DA680E490A40DA602E
:100AF0001A680D490A401A609A6801218A439A606F
:100B00001A680A490A401A60DA6809490A40DA6034
:100B100000221A6180221205064B9A607047C04677
:100B2000001002400C40FF88F6FFF6FEFFFFFBFFBF
:100B3000FFFF02FF00ED00E0F0B5D6464F46464607
:100B4000C0B582B00090019191461769012400253B
:100B500006E0002320002900FFF78EFB04000D00B3
:100B600022002B0000980199FFF766FB4B46DA68DC
:100B70000029EED18242ECD9002398460AE00B000E
:100B8000034307D127E030239E193E7001239C4682
:100B9000E044170023002B4329D022002B000098AB
:100BA0000199FFF749FB0600824622002B000098BE
:100BB0000199FFF741FB009201934B46DA6800234D
:100BC00020002900FFF738FB04000D004346002BEE
:100BD00001D1002ED3DD7A1C5346092BD3DD4B46C1
:100BE0001B785B0701D53723CEE75723CCE73B7053
:100BF00002B01CBC90469946A246F0BD10B5002933
:100C000006DA03000C0000215842A1412D23137283
:100C1000FFF792FF10BDF0B5D64600B582B0009048
:100C20000E000F69012400E05C4321000098FFF7EB
:100C300077FAF3689842F7D2002509E0002807D137
:100C40001DE03020019A94466044387001351F0041
:100C5000002C1FD021000098FFF762FA0190824615
:100C600021000098FFF7E2FA0091F1682000FFF7F9
:100C700057FA0400002D02D15346002BDEDD7B1C09
:100C80005246092ADDDD3278520701D53720D9E7EF
:100C90005720D7E700233B7002B004BC9246F0BD5A
:100CA00010B5002802DBFFF7B6FF10BD40422D2330
:100CB0000B72F8E7F0B5D64600B582B000900E0092
:100CC0000F69012400E05C4321000098FFF728FA37
:100CD000F3689842F7D2002509E0002807D11DE00B
:100CE0003020019A94466044387001351F00002C72
:100CF0001FD021000098FFF713FA019082462100CF
:100D00000098FFF793FA0091F1682000FFF708FAC6
:100D10000400002D02D15346002BDEDD7B1C524621
:100D2000092ADDDD3278520701D53720D9E757206F
:100D3000D7E700233B7002B004BC9246F0BD10B56B
:100D4000002802DBFFF7B6FF10BD40422D230B72D7
:100D5000F8E70300303BDBB2092B0BD90300613B02
:100D6000DBB2052B08D90300413BDBB2052B05D8CC
:100D7000373800E0303870475738FCE701204042F0
:100D8000F9E7F8B5CE46474680B506008846170015
:100D900099460D6800243000FFF7DBFF002806DBD2
:100DA000B84204DC7C4324182E780135F3E743462F
:100DB0001D604B461C6030000CBC90469946F8BD47
:100DC000F0B583B001900E0017005468136901E07C
:100DD000013C13005A1C1B78002B01D0002CF7DCBF
:100DE0003B7A002B00D0013C3A780223134002D01A
:100DF000F96810291BD0002B02D0FB68082B18D0F3
:100E0000092313421BD0397A00291DD13A780223D5
:100E1000134002D0FA68102A19D0002B02D0FB68C8
:100E2000082B20D03B78DB0725D43B692BE0023C24
:100E3000E6E7013CE4E720210198B0472C00651E5D
:100E4000002CF8DC2C00DEE70198B047DEE730210B
:100E50000198B0473B785B0703D558210198B0470C
:100E6000E0E77821FAE730210198B047DAE730214E
:100E70000198B0472C00651E002CF8DC2C00D4E74C
:100E80000198B0472B005D1C19780029F8D13A78F9
:100E900009231340082B05D003B0F0BD2021019891
:100EA000B0473C00671E002CF8DCF5E770B58EB04B
:100EB00004000D000192009303AB0D9355E009AAC5
:100EC000137801218B4300210A91022083430630CD
:100ED000834313701172019B5A1C019218780028E9
:100EE00005D02D284DD0302851D0232855D00300CF
:100EF000303BDBB2092B56D92E285AD07A2867D03E
:100F00006C286BD00023692800D18BE073D973283B
:100F100000D101E100D998E06F2800D1EDE0702800
:100F200023D109AA137802210B431370002309AAC5
:100F300010210C9158384142484181001078042614
:100F4000B04308431070022B00D1C1E0012B00D147
:100F5000CBE0009B1A1D0092186809A9FFF7AAFEB2
:100F600009AA29002000FFF72BFF019B5A1C0192C0
:100F70001978002900D1DCE02529A0D02000A8475D
:100F8000F3E709AA137808210B431370A3E709AA12
:100F9000137801210B4313709DE709AA13780221EE
:100FA0000B43137097E70AAB0A2201A9FFF7E9FE8A
:100FB000A2E709AA137801210B431370019B5A1C65
:100FC000019218780300303BDBB2092BF6D995E784
:100FD000019B5A1C01921878012394E7019B5A1C2B
:100FE000019218786C2801D001238CE79A1C019299
:100FF0005878022387E7582899D008D8002800D1CC
:1010000097E02528B1D101002000A847ADE763286B
:1010100006D1009B1A1D009219782000A847A4E76A
:101020006428A2D10A220C92022B3CD0012B47D07B
:10103000009B1A1D0092186809A9FFF780FE09AAF3
:1010400029002000FFF7BCFE8FE7752812D10A2285
:101050000C92022B12D0012B1DD0009B1A1D009266
:10106000186809A9FFF726FE09AA29002000FFF742
:10107000A7FE7AE7782800D159E776E7009B073387
:10108000033A93431A00083200921868596809AA73
:10109000FFF752FDE8E7009B1A1D0092186809A9A6
:1010A000FFF7B9FDE0E7009B0733033A93431A00CB
:1010B000083200921868596809AAFFF79FFDBEE739
:1010C000009B1A1D0092186809A9FFF7E9FDB6E711
:1010D000009B0733072293431A00083200921868D6
:1010E000596809AAFFF728FD3AE7009B1A1D0092EC
:1010F000186809A9FFF78FFD32E708230C93009BBE
:101100001A1D0092186809A9FFF7D4FD09AA290041
:101110002000FFF755FE28E7009B1A1D00921B6870
:101120000D9309AA29002000FFF74AFE03AB0D9397
:101130001BE70EB070BD0000024B1960024B186037
:101140007047C04620000020240000200FB410B5D6
:1011500082B004AB04CB0193074C084908682168AE
:10116000FFF7A4FE236800210020984702B010BCBE
:1011700008BC04B01847C04620000020240000200E
:10118000064BDA699862054BDB691B06FBD5034AFF
:10119000136A40210B4313627047C046004400406D
:1011A00010B5002800D110BD0800FFF7E9FFFAE7ED
:1011B00010B502490120FFF7BFFF10BDA1110008C3
:1011C0001348854613480168090E134A914205D118
:1011D000124813490160134813490160002103E0DC
:1011E000124B5B58435004311148124B42189A423B
:1011F000F6D3114A02E00023136004320F4B9A42E7
:10120000F9D3FFF76BFC00F01DF8FFF7DFFAFEE7FC
:1012100000080020040000001F00000034100240FD
:10122000010000000000014000000000141300084D
:1012300000000020040000200400002028000020FE
:10124000FEE7000070B500260C4D0D4C641BA41089
:10125000A64209D1002600F019F80A4D0A4C641B79
:10126000A410A64205D170BDB300EB5898470136D3
:10127000EEE7B300EB5898470136F2E70C1300088D
:101280000C1300080C13000810130008F8B5C04632
:10129000F8BC08BC9E467047F8B5C046F8BC08BC10
:0412A0009E467047AF
:1012A4005372632F6D61696E2E6300007466705F04
:1012B4007072696E74662074657374696E672E2E1D
:1012C40021210A00496E74203A2025642C204865A7
:1012D40078203A20253034780A000000000000000D
:1012E40000000000010203040607080900000000D2
:1012F40001020304030406080C1018203000000047
:08130400C8EFFF7F01000000AB
:04130C00E9000008EC
:04131000C100000810
:0413140080841E00B3
:04000005080011C11D
:00000001FF
