:020000040800F2
:10000000000800202D050008F5030008F70300088C
:1000100000000000000000000000000000000000E0
:10002000000000000000000000000000F9030008CC
:100030000000000000000000FB030008FD030008B2
:10004000AD050008AD050008AD050008AD050008C8
:10005000AD050008AD050008AD050008AD050008B8
:1000600000000000AD050008AD050008AD05000862
:10007000AD050008AD05000800000000AD05000852
:100080000000000000000000000000000000000070
:10009000AD0500080000000000000000AD050008EC
:1000A00000000000AD050008000000000000000096
:1000B000AD050008AD0500080000000000000000CC
:1000C00010B5064C2378002B07D1054B002B02D02E
:1000D000044800E000BF0123237010BD040000208D
:1000E00000000000F8050008084B10B5002B03D0F5
:1000F0000749084800E000BF07480368002B00D10B
:1001000010BD064B002BFBD09847F9E7000000001C
:1001100008000020F805000804000020000000008E
:10012000002243088B4274D303098B425FD3030A36
:100130008B4244D3030B8B4228D3030C8B420DD349
:10014000FF22090212BA030C8B4202D312120902D7
:1001500065D0030B8B4219D300E0090AC30B8B4215
:1001600001D3CB03C01A5241830B8B4201D38B03C3
:10017000C01A5241430B8B4201D34B03C01A524168
:10018000030B8B4201D30B03C01A5241C30A8B42AB
:1001900001D3CB02C01A5241830A8B4201D38B0296
:1001A000C01A5241430A8B4201D34B02C01A52413A
:1001B000030A8B4201D30B02C01A5241CDD2C309AC
:1001C0008B4201D3CB01C01A524183098B4201D328
:1001D0008B01C01A524143098B4201D34B01C01A13
:1001E000524103098B4201D30B01C01A5241C3088B
:1001F0008B4201D3CB00C01A524183088B4201D3FA
:100200008B00C01A524143088B4201D34B00C01AE5
:100210005241411A00D20146524110467047FFE751
:1002200001B5002000F006F802BDC0460029F7D055
:1002300076E770477047C04682B0104B596B012279
:1002400011435963596B0A400192019A9A6B8021BC
:1002500049050A439A639B6B0B400093009B084B34
:10026000DA691202120ADA611A6A06490A401A6247
:100270001A6A1202120A1A6202B070470010024093
:1002800000ED00E0FFFF00FFFEE7000010B5284B87
:100290001A6801218A431A601B68194244D1254912
:1002A0000B68254A1A4080231B0113430B60234A25
:1002B000116880235B000B431360204B1B689B0578
:1002C000FBD51E4B5A681E491140C02212020A4338
:1002D0005A605A681202120A5A60DA68F0218A4398
:1002E000DA60DA6817490A40DA60DA6816490A40C3
:1002F000DA60DA6803218A43DA60104BDB680C228B
:100300001A42FAD1114C200000F0CCF8104A1368C0
:1003100004210B431360200000F0D4F80D4A136A47
:100320001B021B0A136210BD94310B48FFF7ACFF90
:100330000020024000700040FFE7FFFF0010024075
:10034000FF1FFFFFFFF8FFFFFFC7FFFFD0FE3F00CB
:1003500010E000E000ED00E01006000810B5FFF727
:100360006BFFFFF793FF00F01DF8A024E4050121C7
:10037000200000F00DF80221200000F009F8012112
:10038000200000F009F80221200000F005F8ECE759
:100390008369194381617047836909041943816145
:1003A00070470000F0B589B0114BDA6A012422438E
:1003B000DA62DB6A23400193019BA025ED05AC6264
:1003C0000226AE62029403940027049705970696CE
:1003D00002A9280000F013F80296039404970597E9
:1003E000069602A9280000F00AF809B0F0BDC04640
:1003F000001002407047FEE7704770477047F0B545
:10040000002214E0866826408F686F433E43866072
:1004100024E0456A1B0A1C005C435C4363431C01E7
:10042000E41AA5434C6963432B43436201320B68D2
:100430001C00D44028D0012494402340F6D0066804
:100440001D005D436C006419E44326404F686F4310
:100450003E4306604E68013E012ED3D9C668344043
:100460000E696E433443C4604C68022CDED1FF2B0E
:10047000CFD8046A5D436B431D01ED1AAC434D694F
:100480006B4323430362D1E74A68013A012A01D949
:100490000120F0BDC96842689A434B43134343604F
:1004A000F6E7000010B5FA218900FFF739FE0138A0
:1004B000034B586000229A6005321A6010BDC04696
:1004C00010E000E0014B18607047C04600000020BB
:1004D000104B1968802252000A431A60DA680E49EC
:1004E0000A40DA601A680D490A401A609A680121C8
:1004F0008A439A601A680A490A401A60DA68094908
:100500000A40DA6000221A6180221205064B9A60C6
:100510007047C046001002400C40FF88F6FFF6FE10
:10052000FFFFFBFFFFFF02FF00ED00E013488546E1
:1005300013480168090E134A914205D11248134924
:100540000160134813490160002103E0124B5B581E
:10055000435004311148124B42189A42F6D3114AC3
:1005600002E00023136004320F4B9A42F9D3FFF7E5
:10057000AFFF00F01DF8FFF7F1FEFEE700080020D6
:10058000040000001F0000003410024001000000C1
:1005900000000140000000002406000800000020C8
:1005A000040000200400002020000020FEE70000DE
:1005B00070B500260C4D0D4C641BA410A64209D149
:1005C000002600F019F80A4D0A4C641BA410A6423C
:1005D00005D170BDB300EB5898470136EEE7B30084
:1005E000EB5898470136F2E71C0600081C06000885
:1005F0001C06000820060008F8B5C046F8BC08BC78
:100600009E467047F8B5C046F8BC08BC9E46704789
:0C0610005372632F6D61696E2E63000051
:04061C00E9000008E9
:04062000C10000080D
:0406240080841E00B0
:040000050800052DBD
:00000001FF
