:020000040800F2
:10000000000800200D1300088D1300088D13000850
:1000100000000000000000000000000000000000E0
:100020000000000000000000000000008D13000828
:1000300000000000000000008D1300088D13000870
:100040008D1300088D1300088D1300088D13000810
:100050008D1300088D1300088D1300088D13000800
:10006000000000008D1300088D1300088D13000898
:100070008D1300088D130008000000008D13000888
:100080000000000000000000000000000000000070
:100090008D13000800000000000000008D13000810
:1000A000000000008D1300080000000000000000A8
:1000B0008D1300088D1300080000000000000000F0
:1000C00010B5064C2378002B07D1054B002B02D02E
:1000D000044800E000BF0123237010BD040000208D
:1000E00000000000D8130008084B10B5002B03D007
:1000F0000749084800E000BF07480368002B00D10B
:1001000010BD064B002BFBD09847F9E7000000001C
:1001100008000020D81300080400002000000000A0
:10012000002243088B4274D303098B425FD3030A36
:100130008B4244D3030B8B4228D3030C8B420DD349
:10014000FF22090212BA030C8B4202D312120902D7
:1001500065D0030B8B4219D300E0090AC30B8B4215
:1001600001D3CB03C01A5241830B8B4201D38B03C3
:10017000C01A5241430B8B4201D34B03C01A524168
:10018000030B8B4201D30B03C01A5241C30A8B42AB
:1001900001D3CB02C01A5241830A8B4201D38B0296
:1001A000C01A5241430A8B4201D34B02C01A52413A
:1001B000030A8B4201D30B02C01A5241CDD2C309AC
:1001C0008B4201D3CB01C01A524183098B4201D328
:1001D0008B01C01A524143098B4201D34B01C01A13
:1001E000524103098B4201D30B01C01A5241C3088B
:1001F0008B4201D3CB00C01A524183088B4201D3FA
:100200008B00C01A524143088B4201D34B00C01AE5
:100210005241411A00D20146524110467047FFE751
:1002200001B5002000F006F802BDC0460029F7D055
:1002300076E770477047C04610B50021034800F0CC
:1002400050F90021024800F04CF910BD24000020B4
:100250005C000020FEE7000000B593B01E4A116864
:10026000C0235B010B431360102305930F3B0B93DB
:1002700000230C93C02212020D920E9305A800F0E9
:1002800043FA00281FD10F23009300230193029308
:10029000039304930021684600F0FCFC002816D16B
:1002A00000F0C8FDFA218900FFF73AFF00F0E8FEF0
:1002B000042000F001FF002200210120404200F054
:1002C000ADFE13B000BD92210448FFF7C3FFA0218B
:1002D0000248FFF7BFFFC04600700040F01300085F
:1002E00010B500F0BBF9FFF7B7FF00F023FF00F0F7
:1002F00087FF00F0C5FF00F083FEFFF79DFF074A70
:10030000136808210B4313600639012000F060FEDA
:100310000221A020C00500F057FEF0E700200240B7
:1003200010B50E4B5A6B01210A435A63996B802218
:1003300052050A439A63002200210520404200F042
:100340006DFE002200210220404200F067FE0022E4
:1003500000210120404200F061FE10BD001002406B
:1003600003688022D205904221D0144A90421CD0CA
:100370000022002A03D0702293434A68134380224C
:10038000D205904217D00D4A904212D00022002A86
:1003900003D00B4A1340CA68134303608B68C362DF
:1003A0000B6883620123436170470122E1E7012268
:1003B000DFE70122EBE70122E9E7C0460008014040
:1003C000FFFCFFFF30B5036A012293430362036A17
:1003D000446882697325AA430D682A430225AB430A
:1003E0008D682B43446082614A684263036230BD7A
:1003F00030B5036A102293430362036A4568826939
:10040000074C22400C68240222432024A3438C681A
:1004100024012343456082614A688263036230BDE0
:10042000FF8CFFFF30B5036A0A4A13400362036A78
:100430004568C2697324A2430C682243064C2340DA
:100440008C68240223434560C2614A68C263036228
:1004500030BDC046FFFEFFFFFFFDFFFF30B5036A62
:100460000A4A13400362036A4568C269084C224085
:100470000C6824022243074C23408C682403234346
:100480004560C2614A680264036230BDFFEFFFFF4E
:10049000FF8CFFFFFFDFFFFF10B501248C40036AD4
:1004A000A3430362036A8A401A43026210BD70B517
:1004B000041E14D03523C35C002B0AD0352502233B
:1004C0006355211D2068FFF74BFF01236355002072
:1004D00070BD00223433C25400F04CFEEEE7012020
:1004E000F6E710B5040001220068FFF7D5FF226887
:1004F000136801210B431360002010BD70B5040088
:100500000D003423C35C012B69D001213423C15475
:1005100001310133C154042A37D019D9082A4AD0ED
:100520000C2A2AD129000068FFF798FF2268D169B8
:1005300080231B010B43D3612268D36929490B40F7
:10054000D3612168CB69EA6812021343CB6114E0DE
:10055000002A12D129000068FFF734FF226893694E
:1005600008210B4393612268936904398B4393619B
:1005700022689369E9680B43936101223523E254B1
:100580000022013BE254002070BD29000068FFF703
:100590002FFF2268916980231B010B43936122681E
:1005A000936910490B40936121688B69EA681202D4
:1005B00013438B61E1E729000068FFF733FF2268EE
:1005C000D36908210B43D3612268D36904398B4373
:1005D000D3612268D369E9680B43D361CDE7022078
:1005E000D2E7C046FFFBFFFFF0B53423C35C012B0D
:1005F0001ED0342201258554352402230355066874
:1006000073687027BB437360066873680F683B4369
:1006100073600668B3688027BB43B3600668B3683D
:1006200049680B43B3600555002383540020F0BD97
:100630000220FCE710B50400074B1868FA21890076
:10064000FFF76EFD00F01CFD00222100012040425A
:1006500000F0E4FC002010BD0000002010B5064AA8
:10066000136840210B4313600020FFF7E3FFFFF7FF
:1006700057FE002010BDC04600200240014B186804
:100680007047C0462000002030B51B4BDB68F022CD
:10069000134022D1184A926BD2000ED5174A126825
:1006A000C02149010A40C02149018A4216D1C02215
:1006B0001202904212D1012310E00F498C6B80226C
:1006C000520522438A630D4A1268C0246401224005
:1006D0008C6B0B4D2C408C63E5E7002309480268C6
:1006E00001218A431A430260026811408B4201D003
:1006F000012030BD0020FCE70010024000700040E7
:10070000FFFFFFEF0020024070B582B004000368D5
:10071000DB0740D5BA4BDA680C231340082B32D0E4
:10072000B74BDA680C2313400C2B28D06368802267
:100730005202934257D0A022D20293425AD0B04BD9
:100740001A68B0490A401A601A68802149020A40B2
:100750000192019A1A68AC490A401A606368002B3A
:1007600054D0FFF78BFF0500A54B1B689B0312D4E9
:10077000FFF784FF401B6428F6D903202CE2A04B2E
:10078000DB68DB03D2D59E4B1B689B0303D56368F4
:10079000002B00D119E223689B075AD5984BDA68E1
:1007A0000C231340042B43D0954BDA680C231340E1
:1007B0000C2B39D0E368002B00D1ADE090490A68DA
:1007C0000920824313430B60FFF758FF05008C4B51
:1007D0001B685B0700D596E0FFF750FF401B02281F
:1007E000F5D90320F8E1864A116880235B020B43A8
:1007F0001360B3E7824B19688022D2020A431A6061
:100800001968802252020A431A60A7E7FFF736FFF1
:1008100005007B4B1B689B03BDD5FFF72FFF401BDB
:100820006428F6D90320D7E1754BDB68DB03C1D41C
:10083000734B1B685B0704D5E368012B01D00120D3
:10084000CAE16F494B68714A13402269120213438F
:100850004B602368DB063BD5694BDB680C221A42F0
:1008600000D080E0664B1B689B0503D5A369002B75
:1008700000D1ACE1206A624B5B68E02212021340B7
:1008800098425CD9FFF700FF002800D0A1E15C4A44
:1008900053685F490B40216A0B43536053681B0246
:1008A0001B0AE16909060B435360236A5A0B0132A4
:1008B00080231B029340524AD16809090F220A4043
:1008C00054498A5CD340544A13600020FFF7B2FEBB
:1008D00023681B0700D4A3E06369002B7CD0484A3F
:1008E000136D01210B431365FFF7C8FE0500444B50
:1008F0001B6D9B0700D593E0FFF7C0FE401B02284D
:10090000F5D9032068E13E494B68404A134022690B
:10091000120213434B609CE7394A136801218B4351
:100920001360FFF7ABFE0500354B1B685B0790D5E6
:10093000FFF7A4FE401B0228F6D903204CE1304A01
:10094000536833490B401843506053681B021B0A1D
:10095000E16909060B435360206AFFF795FE002802
:10096000A3D0012038E1A369002B22D0244A1168CA
:1009700080235B000B431360FFF780FE0500204BD4
:100980001B689B0506D4FFF779FE401B0228F6D9A9
:10099000032021E11A4A53681D490B40216A0B4389
:1009A000536053681B021B0AE16909060B4353603D
:1009B0008EE7134A136819490B401360FFF75EFE78
:1009C00005000F4B1B689B0582D5FFF757FE401BA8
:1009D0000228F6D90320FFE0094A136D01218B4359
:1009E0001365FFF74BFE0500054B1B6D9B0717D5E5
:1009F000FFF744FE401B0228F6D90320ECE0C04676
:100A000000100240FFFFFEFFFFFFFBFFFFE0FFFFC4
:100A1000FF1FFFFFFC13000800000020FFFEFFFF88
:100A200023685B0778D56E4B9B6BDB002CD46C4A3C
:100A3000916B80235B050B4393630125694B1B6816
:100A4000DB0523D5A36880225200934232D0002BCD
:100A500037D1634B1A6D64490A401A651A6D6349B0
:100A60000A401A65A368002B45D0FFF707FE060071
:100A70005B4B1B6D9B054DD4FFF700FE801B5C4B51
:100A80009842F5D90320A7E00025D7E7554A116819
:100A900080235B000B431360FFF7F0FD0600514B12
:100AA0001B68DB05CED4FFF7E9FD801B6428F6D96F
:100AB000032091E04A4A116D80235B000B431365CC
:100AC000D0E7A022D200934209D0454B1A6D464987
:100AD0000A401A651A6D45490A401A65C2E7404B3B
:100AE000196D013AFF3A0A431A65196D80225200C6
:100AF0000A431A65B6E7FFF7C1FD0600384B1B6DC8
:100B00009B0507D5FFF7BAFD801B394B9842F5D9F5
:100B1000032061E0012D1DD0636A002B5BD0304AB9
:100B2000D1680C220A400C2A58D0022B18D02C4A2B
:100B3000136830490B401360FFF7A0FD0400284BF9
:100B40001B689B013FD5FFF799FD001B0228F6D9D2
:100B5000032041E0224A936B27490B409363DBE774
:100B60001F4A136823490B401360FFF787FD0500F8
:100B70001B4B1B689B0106D5FFF780FD401B02281D
:100B8000F6D9032028E01649CB681C4A1340A26A14
:100B9000E06A0243206B02431343CB600A68802360
:100BA0005B0413430B60FFF769FD04000C4B1B68EB
:100BB0009B0106D4FFF762FD001B0228F6D9032033
:100BC0000AE0002008E0002006E0012004E0012007
:100BD00002E0012000E0002002B070BD0120FBE730
:100BE0000010024000700040FFFEFFFFFFFBFFFF10
:100BF00088130000FFFFFFFEFFFFFFEFFFFF02FF74
:100C000010B51F4BD9680C230B40082B33D00C2B8D
:100C100011D0042B09D01A4B5A68520B07231340EA
:100C2000013380200002984010BD154B1B68DB0685
:100C300023D51448F8E78A0C0F231340124AD05CDE
:100C4000890D0323194001310D4BDB68DB0308D408
:100C50000B4B1B68DB0609D50A4B5843FFF760FABC
:100C6000E2E70A4B5843FFF75BFADDE7084B5843CE
:100C7000FFF756FAD8E70548D6E70548D4E7C04657
:100C80000010024000093D000C14000800127A0018
:100C90000024F40070B504000D005F4B1A680123B6
:100CA00013408B420BD25C490B68012293432B43C8
:100CB0000B600B681A40954201D00120A8E0236820
:100CC0009B0706D5554AD368F0218B43A1680B4397
:100CD000D3602368DB0764D56368022B25D0032B20
:100CE00029D0012B2DD04D4A1268920500D490E0F6
:100CF0004A49CA68032082431343CB60FFF7BEFC16
:100D000006006368022B22D0032B2ED0012B3AD091
:100D1000424BDB680C221A4243D0FFF7AFFC801B2A
:100D20003F4B9842F4D9032072E03C4A1268920388
:100D3000DED401206CE0394A12689201D8D4012037
:100D400066E0364A12685207D2D4012060E0334B85
:100D5000DA680C231340082B23D0FFF78FFC801B8D
:100D60002F4B9842F3D9032052E02C4BDA680C2326
:100D700013400C2B15D0FFF781FC801B284B9842A9
:100D8000F3D9032044E0254BDA680C231340042BED
:100D900007D0FFF773FC801B214B9842F3D9032047
:100DA00036E01D4B1A68012313409D420BD21A49AD
:100DB0000B68012293432B430B600B681A4095424A
:100DC00001D0012024E023685B0706D5134AD368CD
:100DD00014490B40E1680B43D36023681B0707D518
:100DE0000E49CB68104A13402269D2001343CB60EE
:100DF000FFF706FF094BDA6812090F2313400B4A6D
:100E0000D35CD8400A4B18600020FFF713FC002089
:100E100070BD0120FCE7C0460020024000100240E7
:100E200088130000FFF8FFFFFFC7FFFFFC13000857
:100E300000000020014B18687047C04600000020E9
:100E4000F0B5C64600B5002388E0DF080837BF00CC
:100E50003E5807251D40AD000F22AA4096430A695F
:100E6000AA40150035433D5088E085685F000326A1
:100E7000BE40B543CE68BE40354385604568A54356
:100E80002C004A681609012535409D402C434460DA
:100E900005685E0003242700B740FF433D404A68D1
:100EA0001440B4402C430460C4683C408D68B54095
:100EB0002C43C4604A68D2004FD53B4D6C6B012671
:100EC00034436C639C08A51CAD00384EAE59032515
:100ED0001D40AD000F27AF40BE43A027FF05B8421D
:100EE0005AD0334FB84259D0324FB84252D0062769
:100EF000AF403D0035430234A4002C4EA5512E4C8A
:100F000025684246D44326002E404A68D20302D5C3
:100F1000424615432E00284D2E606D682E00264057
:100F20004A68920302D5424615432E00224D6E6058
:100F3000AD682E0026404A68D20202D542461543CB
:100F40002E001D4DAE60ED682C404A68920202D51D
:100F500042462A431400184AD46001330A68140038
:100F6000DC401DD001249C4022409046F5D04D68C5
:100F7000022D00D169E7122D00D166E74D686E1E83
:100F8000012E00D871E7112D00D16EE7122D00D08F
:100F90007EE76AE70227ABE70027A9E70127A7E773
:100FA00004BC9046F0BDC046001002400000014065
:100FB000000400500008005000040140002A01D144
:100FC000816270478161FCE7436959404161704724
:100FD00010B5094A13680324A34318431060074A55
:100FE0001369042083431361012903D040BF20BF4C
:100FF00020BF10BD30BFFCE70070004000ED00E0F6
:10100000054B1A6801210A431A6019688022D2012F
:101010000A431A607047C0460070004070B500284F
:1010200011DB8308144DC0339B005C590322104030
:10103000C000FC3216008640B44389010A40824059
:1010400022435A5170BDC0B20F230340083B9B0896
:1010500006339B00094A944663445D6803221040AE
:10106000C000FF2422008240954389010C40844047
:101070002C435C60E6E7C04600E100E000ED00E0E4
:1010800001380A4B98420FD8094A50600948036A50
:101090001B021B0AC02109060B4303620023936055
:1010A00007331360002070470120FCE7FFFFFF00BB
:1010B00010E000E000ED00E0042805D0054A1368C8
:1010C00004218B4313607047024A136804210B43C9
:1010D0001360F8E710E000E0104B1968802252001E
:1010E0000A431A60DA680E490A40DA601A680D4944
:1010F0000A401A609A6801218A439A601A680A496C
:101100000A401A60DA6809490A40DA6000221A6166
:1011100080221205064B9A607047C04600100240BC
:101120000C40FF88F6FFF6FEFFFFFBFFFFFF02FF0C
:1011300000ED00E030B587B00D4BDA6A01242243A0
:10114000DA62DB6A23400093009BA025ED050122B3
:1011500032212800FFF732FF32230193029400234B
:101160000393049301A92800FFF76AFE07B030BD7E
:101170000010024003688022D205934203D0084A3F
:10118000934206D07047074A936B01210B43936348
:10119000F8E7044A536B04210B435363F2E7C0465C
:1011A000000801400010024000B587B003688022AB
:1011B000D205934204D0114A93420FD007B000BD2C
:1011C00001230193013302930022039204920593B9
:1011D00001A9A020C005FFF733FEEFE78023DB0065
:1011E000019302230293002303930493059301A91F
:1011F000A020C005FFF724FEE0E7C046000801403C
:1012000000B587B01C488023DB05036000234360E2
:1012100083604A22C2600361FFF749F900281BD1AD
:1012200000230493059304A91348FFF7DDF9002870
:1012300017D160230093593B01930023029303933A
:10124000002269460C48FFF759F900280ED10A48D8
:10125000FFF7AAFF07B000BD3F210848FEF7FAFFDD
:10126000DEE746210548FEF7F5FFE2E74F21034898
:10127000FEF7F0FFEBE7C04624000020181400083A
:1012800000B587B01C481D4B036001234360002359
:1012900083601B4AC2600361FFF709F900281BD174
:1012A00000230493059304A91348FFF79DF9002830
:1012B00017D160230093134B0193002302930393F0
:1012C000002269460C48FFF719F900280ED10A4898
:1012D000FFF76AFF07B000BD62210B48FEF7BAFFB7
:1012E000DEE769210848FEF7B5FFE2E7722106480C
:1012F000FEF7B0FFEBE7C0465C00002000080140AD
:1013000008520000340800001814000813488546ED
:1013100013480168090E134A914205D11248134936
:101320000160134813490160002103E0124B5B5830
:10133000435004311148124B42189A42F6D3114AD5
:1013400002E00023136004320F4B9A42F9D3FFF7F7
:10135000C3FE00F01DF8FEF7C3FFFEE70008002003
:10136000040000001F0000003410024001000000D3
:1013700000000140000000002C14000800000020C4
:10138000040000200400002094000020FEE700007C
:1013900070B500260C4D0D4C641BA410A64209D15B
:1013A000002600F019F80A4D0A4C641BA410A6424E
:1013B00005D170BDB300EB5898470136EEE7B30096
:1013C000EB5898470136F2E724140008241400086B
:1013D0002414000828140008F8B5C046F8BC08BC5E
:1013E0009E467047F8B5C046F8BC08BC9E4670479C
:1013F0005372632F6D61696E2E6300000000000060
:10140000000000000102030406070809030406089F
:101410000C101820300000005372632F74696D2E79
:041420006300000065
:04142400E9000008D3
:04142800C1000008F7
:04142C0080841E009A
:040000050800130DCF
:00000001FF
