:020000040800F2
:1000000000080020410C0008250300082703000811
:1000100000000000000000000000000000000000E0
:10002000000000000000000000000000290300089C
:1000300000000000000000002B0300082D03000852
:10004000C10C0008C10C0008C10C0008C10C00085C
:10005000C10C0008C10C0008C10C0008C10C00084C
:1000600000000000C10C0008C10C0008C10C000811
:10007000C10C0008C10C000800000000C10C000801
:100080000000000000000000000000000000000070
:10009000C10C00080000000000000000C10C0008B6
:1000A00000000000C10C000800000000000000007B
:1000B000C10C0008C10C0008000000000000000096
:1000C00010B5064C2378002B07D1054B002B02D02E
:1000D000044800E000BF0123237010BD040000208D
:1000E000000000000C0D0008084B10B5002B03D0D9
:1000F0000749084800E000BF07480368002B00D10B
:1001000010BD064B002BFBD09847F9E7000000001C
:10011000080000200C0D0008040000200000000072
:10012000002243088B4274D303098B425FD3030A36
:100130008B4244D3030B8B4228D3030C8B420DD349
:10014000FF22090212BA030C8B4202D312120902D7
:1001500065D0030B8B4219D300E0090AC30B8B4215
:1001600001D3CB03C01A5241830B8B4201D38B03C3
:10017000C01A5241430B8B4201D34B03C01A524168
:10018000030B8B4201D30B03C01A5241C30A8B42AB
:1001900001D3CB02C01A5241830A8B4201D38B0296
:1001A000C01A5241430A8B4201D34B02C01A52413A
:1001B000030A8B4201D30B02C01A5241CDD2C309AC
:1001C0008B4201D3CB01C01A524183098B4201D328
:1001D0008B01C01A524143098B4201D34B01C01A13
:1001E000524103098B4201D30B01C01A5241C3088B
:1001F0008B4201D3CB00C01A524183088B4201D3FA
:100200008B00C01A524143088B4201D34B00C01AE5
:100210005241411A00D20146524110467047FFE751
:1002200001B5002000F006F802BDC0460029F7D055
:1002300076E770477047C046FEE7000010B5284BD0
:100240001A6801218A431A601B68194244D1254962
:100250000B68254A1A4080231B0113430B60234A75
:10026000116880235B000B431360204B1B689B05C8
:10027000FBD51E4B5A681E491140C02212020A4388
:100280005A605A681202120A5A60DA68F0218A43E8
:10029000DA60DA6817490A40DA60DA6816490A4013
:1002A000DA60DA6803218A43DA60104BDB680C22DB
:1002B0001A42FAD1114C200000F06EFB104A13686C
:1002C00004210B431360200000F076FB0D4A136AF3
:1002D0001B021B0A136210BD7E310B48FFF7ACFFF7
:1002E0000020024000700040FFE7FFFF00100240C6
:1002F000FF1FFFFFFFF8FFFFFFC7FFFFD0FE3F001C
:1003000010E000E000ED00E0240D000810B500F062
:100310006DFBFFF793FF00F03DF800F077F800F079
:1003200047F8FEE77047FEE77047704710B500F0EA
:100330006DFB00F080FC10BD104B1968802252004C
:100340000A431A60DA680E490A40DA601A680D49F1
:100350000A401A609A6801218A439A601A680A4919
:100360000A401A60DA6809490A40DA6000221A6114
:1003700080221205064B9A607047C046001002406A
:100380000C40FF88F6FFF6FEFFFFFBFFFFFF02FFBA
:1003900000ED00E082B0054AD16A01231943D16221
:1003A000D26A13400193019B02B0704700100240D3
:1003B00010B50021014800F0B9F910BD200000205F
:1003C00002688023DB059A4200D07047024A936B93
:1003D00001210B439363F8E70010024000B587B09A
:1003E00002688023DB059A4201D007B000BD0123DB
:1003F000019301330293002203920493059301A910
:10040000A020C00500F00AFBEFE7000000B58BB0AC
:1004100028488023DB0503600023436083604A2271
:10042000C260036100F04DF900282AD180235B01EE
:10043000069306A91F4800F0FDF9002826D11D48A3
:1004400000F05AF9002826D100230493059304A94B
:10045000184800F07BFA002822D160230093593B12
:100460000193053B02930023039300226946114840
:1004700000F06AF9002818D10E48FFF7AFFF0BB063
:1004800000BD42210C48FFF7D7FECFE748210A48BC
:10049000FFF7D2FED3E74D210748FFF7CDFED3E7A4
:1004A00054210548FFF7C8FED7E75D210248FFF752
:1004B000C3FEE1E720000020300D000810B50E4B10
:1004C0005A6B01210A435A63996B802252050A43F1
:1004D0009A63002200210520404200F05DFB0022CB
:1004E00000210220404200F057FB002200210120A1
:1004F000404200F051FB10BD001002400368802212
:10050000D205904221D0144A90421CD00022002AE9
:1005100003D0702293434A6813438022D20590424D
:1005200017D00D4A904212D00022002A03D00B4A65
:100530001340CA68134303608B68C3620B6883620D
:100540000123436170470122E1E70122DFE7012235
:10055000EBE70122E9E7C04600080140FFFCFFFF8E
:1005600030B5036A012293430362036A44688269D7
:100570007325AA430D682A430225AB438D682B439C
:10058000446082614A684263036230BD30B5036AE9
:10059000102293430362036A45688269074C224034
:1005A0000C68240222432024A3438C6824012343A3
:1005B000456082614A688263036230BDFF8CFFFF41
:1005C00030B5036A0A4A13400362036A4568C26988
:1005D0007324A2430C682243064C23408C682402F7
:1005E00023434560C2614A68C263036230BDC046AE
:1005F000FFFEFFFFFFFDFFFF30B5036A0A4A13400D
:100600000362036A4568C269084C22400C682402F0
:100610002243074C23408C68240323434560C26176
:100620004A680264036230BDFFEFFFFFFF8CFFFFEB
:10063000FFDFFFFF30B5036A046A0125AC430462A3
:100640008469EF35AC43120122430A24A3431943C2
:100650008261016230BD000030B5036A1024A343FB
:1006600003628469036A054D2C4012032243A024CF
:10067000A343090119438261016230BDFF0FFFFFEF
:100680008368702293430722114389B21943816022
:100690007047000030B58468034D2C401B021A439C
:1006A00011432143816030BDFF00FFFF10B50124DD
:1006B0008C40036AA3430362036A8A401A430262BE
:1006C00010BD70B5041E14D03523C35C002B0AD0B6
:1006D000352502236355211D2068FFF70FFF0123F5
:1006E0006355002070BD00223433C254FFF768FE0A
:1006F000EEE70120F6E7704770B5041E14D03523ED
:10070000C35C002B0AD0352502236355211D2068C8
:10071000FFF7F4FE01236355002070BD002234333F
:10072000C254FFF7E8FFEEE70120F6E710B504003A
:1007300001220068FFF7BAFF2268136801210B430A
:100740001360002010BD000070B504000D003423BC
:10075000C35C012B69D001213423C1540131013321
:10076000C154042A37D019D9082A4AD00C2A2AD1D0
:1007700029000068FFF740FF2268D16980231B0130
:100780000B43D3612268D36929490B40D3612168A7
:10079000CB69EA6812021343CB6114E0002A12D13C
:1007A00029000068FFF7DCFE2268936908210B43EB
:1007B00093612268936904398B439361226893693A
:1007C000E9680B43936101223523E2540022013B87
:1007D000E254002070BD29000068FFF7D7FE2268B0
:1007E000916980231B010B4393612268936910492F
:1007F0000B40936121688B69EA68120213438B6195
:10080000E1E729000068FFF7DBFE2268D3690821D1
:100810000B43D3612268D36904398B43D3612268C7
:10082000D369E9680B43D361CDE70220D2E7C04624
:10083000FFFBFFFF10B504003423C35C012B00D184
:100840007FE001223423C25401320133C2540268D2
:1008500093683D48034093600B68402B5DD010D9EE
:10086000702B43D020D8502B4DD0602B36D1CA6886
:1008700049682068FFF7F0FE60212068FFF700FF5D
:100880002CE0102B53D008D9202B55D0302B25D15C
:1008900030212068FFF7F4FE20E0002B1ED100215C
:1008A0002068FFF7EDFE19E080225201934210D03C
:1008B00080229201934211D1CB684A6889682068EE
:1008C000FFF7E8FE226891688023DB010B43936009
:1008D00004E02268936807218B439360012235234B
:1008E000E2540022013BE254002010BDCB684A686C
:1008F00089682068FFF7CEFE2268936877218B43D2
:100900000B439360EAE7CA6849682068FFF792FEE4
:1009100050212068FFF7B4FEE0E7CA684968206804
:10092000FFF788FE40212068FFF7AAFED6E71021D6
:100930002068FFF7A5FED1E720212068FFF7A0FE81
:10094000CCE70220D1E7C0468800FFFFF0B5342392
:10095000C35C012B1ED0342201258554352402238B
:100960000355066873687027BB4373600668736835
:100970000F683B4373600668B3688027BB43B3606E
:100980000668B36849680B43B36005550023835478
:100990000020F0BD0220FCE710B5FA218900FFF726
:1009A000BFFB0138034B586000229A6005321A6081
:1009B00010BDC04610E000E0014B18607047C04613
:1009C0000000002010B50400074B1868FA218900C8
:1009D000FFF7A6FB00F012F900222100012040429F
:1009E00000F0DAF8002010BD0000002010B5064A23
:1009F000136840210B4313600020FFF7E3FFFFF76C
:100A00005DFD002010BDC04600200240024A136870
:100A1000013313607047C04658000020F0B5C64649
:100A200000B5002388E0DF080837BF003E580725DF
:100A30001D40AD000F22AA4096430A69AA40150046
:100A400035433D5088E085685F000326BE40B543CE
:100A5000CE68BE40354385604568A5432C004A6892
:100A60001609012535409D402C43446005685E0011
:100A700003242700B740FF433D404A681440B44078
:100A80002C430460C4683C408D68B5402C43C4606E
:100A90004A68D2004FD53B4D6C6B012634436C63E2
:100AA0009C08A51CAD00384EAE5903251D40AD0075
:100AB0000F27AF40BE43A027FF05B8425AD0334F9F
:100AC000B84259D0324FB84252D00627AF403D000D
:100AD00035430234A4002C4EA5512E4C25684246C5
:100AE000D44326002E404A68D20302D5424615431D
:100AF0002E00284D2E606D682E0026404A68920315
:100B000002D5424615432E00224D6E60AD682E0080
:100B100026404A68D20202D5424615432E001D4D9A
:100B2000AE60ED682C404A68920202D542462A43E4
:100B30001400184AD46001330A681400DC401DD048
:100B400001249C4022409046F5D04D68022D00D1F2
:100B500069E7122D00D166E74D686E1E012E00D8A0
:100B600071E7112D00D16EE7122D00D07EE76AE704
:100B70000227ABE70027A9E70127A7E704BC9046B7
:100B8000F0BDC046001002400000014000040050CB
:100B9000000800500004014070B5002811DB8308F4
:100BA000144DC0339B005C5903221040C000FC323E
:100BB00016008640B44389010A40824022435A51BC
:100BC00070BDC0B20F230340083B9B0806339B0057
:100BD000094A944663445D6803221040C000FF2424
:100BE00022008240954389010C4084402C435C6084
:100BF000E6E7C04600E100E000ED00E001380A4B06
:100C000098420FD8094A50600948036A1B021B0A20
:100C1000C02109060B43036200239360073313606E
:100C2000002070470120FCE7FFFFFF0010E000E01C
:100C300000ED00E0704710B5FFF7FCFF10BD0000AD
:100C40001348854613480168090E134A914205D19D
:100C5000124813490160134813490160002103E061
:100C6000124B5B58435004311148124B42189A42C0
:100C7000F6D3114A02E00023136004320F4B9A426C
:100C8000F9D3FFF759FB00F01DF8FFF73FFBFEE734
:100C900000080020040000001F0000003410024083
:100CA000010000000000014000000000440D0008A9
:100CB0000000002004000020040000205C00002050
:100CC000FEE7000070B500260C4D0D4C641BA4100F
:100CD000A64209D1002600F019F80A4D0A4C641BFF
:100CE000A410A64205D170BDB300EB589847013659
:100CF000EEE7B300EB5898470136F2E73C0D0008E9
:100D00003C0D00083C0D0008400D0008F8B5C04639
:100D1000F8BC08BC9E467047F8B5C046F8BC08BC95
:040D20009E46704734
:100D24005372632F6D61696E2E6300005372632FDB
:080D340074696D2E63000000DC
:040D3C00E9000008C2
:040D4000C1000008E6
:040D440080841E0089
:0400000508000C41A2
:00000001FF
